:100000000A128A11DB2FF2002B307206031909281D
:100010000A2810282D307206031D0F2810281528D5
:100020000130F0000030F10028282A307206031950
:100030001A281B2821282F307206031D202821286A
:1000400026280230F0000030F1002828F001F101EC
:1000500008007008143EF30071080318013E003ECA
:10006000F400730884008317741C83130008F500E0
:10007000840A0008F6007608803AFF0080307F028C
:10008000031D442813307502031847284828732895
:100090007008143EF30071080318013E003EF4009E
:1000A000730884008317741C831301308007840A4B
:1000B0000318800A84030008F500840A0008F6008B
:1000C00075087007F8007108F7000318F70AF51FA4
:1000D0006A28F7037708F900780884008317791CE9
:1000E0008313720880000800831203132008283E3F
:1000F000A40021080318013E003EA5002408840046
:100100008317251C83130008A600840A0008A70093
:100110002708803AFF0080307F02031D91281330AA
:100120002602031894289528C22883120313200856
:10013000283EA40021080318013E003EA500240823
:1001400084008317251C831301308007840A031859
:10015000800A84030008A600840A0008A700260875
:10016000A80028072007A90021080318013EAA00BB
:100170002908840083172A1C831322088000840A1C
:10018000230880000800F501F31FC728C828CF28DE
:10019000F209F309F20A0319F30A0130F500F11F1D
:1001A000D228D328D828F009F109F00A0319F10A56
:1001B000700871040319DD28DE280B290130F400D2
:1001C000EA2801300310F00DF10DFF3E031DE22877
:1001D0000130F407F11FED28EE28E12871087302C1
:1001E000031DF42870087202031CF728F828FE2863
:1001F0007008F2027108031CF303F30201300310CC
:10020000F10CF00CFF3E031DFF280130F402031D2A
:100210000A290B29EE28750803190F291029152919
:10022000F209F309F20A0319F30A7308F1007208DC
:10023000F0000800F501F11F1E291F292629F009E9
:10024000F109F00A0319F10A0130F500F31F292919
:100250002A293129F209F309F20A0319F30A0130B4
:10026000F506F601F70170087104031938293929D8
:100270006E290130F400452901300310F00DF10D15
:10028000FF3E031D3D290130F407F11F482949298C
:100290003C2901300310F60DF70DFF3E031D4A29DE
:1002A00071087302031D562970087202031C592934
:1002B0005A2961297008F2027108031CF303F30242
:1002C000761401300310F10CF00CFF3E031D62297F
:1002D0000130F402031D6D296E294929750803199F
:1002E000722973297829F609F709F60A0319F70A1A
:1002F0007708F1007608F0000800831203138601E6
:1003000003300A128A157B270A128A110A128A15EB
:100310008B250A128A112730F700F530F600F60B0C
:100320008F29F70B8F2903300A128A157B270A12AF
:100330008A110A128A158B250A128A110D30F700CC
:10034000FB30F600F60BA229F70BA229A7290330F0
:100350000A128A157B270A128A110A128A158B251E
:100360000A128A1102300A128A157B270A128A1190
:100370000A128A158B250A128A11F30128300A12F3
:100380008A1515270A128A11F3010C300A128A15F0
:1003900015270A128A11F30101300A128A1515274E
:1003A0000A128A110630F7003030F600F60BD62913
:1003B000F70BD6290000F30106300A128A1515271B
:1003C0000A128A110800FB01FC01FA01E929013037
:1003D000F607760884002030831300060319F129FC
:1003E000F229E72976088400F7300007F800053085
:1003F0007802031CFC29FD29E729760884002D30AA
:100400000006031D042A052A0A2A0130FA000130D9
:10041000F607332A760884002B300006031D112AC4
:10042000122A332A072A760884007C08F1007B0808
:10043000F0000A30F2000030F3000A128A15A326F9
:100440000A128A117108F900831300087002F8007B
:10045000031CF9037808303EFB0079080318013EBD
:10046000003EFC00072A76088400D0300007F80020
:100470000A307802031C3D2A3E2A132A7A08031DFB
:10048000422A432A4F2A7B09F8007C09F900F80A1E
:100490000319F90A7808F6007908F700532A7C084E
:1004A000F7007B08F6000800720873040319592A44
:1004B0005A2A602A72087304031D5F2A602A672A79
:1004C00070080A128A1578250A128A11ED2A720814
:1004D000093EF40073080318013E003EF50074085D
:1004E00084008317751C83130008F600840A000833
:1004F000F7007608770403197E2A7F2AB12A72084A
:10050000093EF40073080318013E003EF50074082C
:1005100084008317751C83130008F600840A000802
:10052000F7007208023EF80073080318013E003E0F
:10053000F900780884008317791C83130008FA00F7
:10054000840A0008FB007B08803AFC007708803AA8
:100550007C02031DAD2A76087A020318B02AB12A5C
:10056000ED2A720884008317731C83130008F400BB
:10057000840A0008F5007208023EF60073080318AA
:10058000013E003EF700760884008317771C831332
:1005900000087407F9007508F8000318F80A801FAE
:1005A000D22AF8037808FA007908840083177A1CA5
:1005B0008313700880007208023EF4007308031869
:1005C000013E003EF500740884008317751C8313F8
:1005D00001308007840A0318800A0800831203137D
:1005E00022088400000884000A128A1500200A12DA
:1005F0008A11253A031DFD2AFE2AC22B22088400F7
:100600000130800783160313C001C101003083123B
:100610000313EE00FF3083160313C200FF30C30044
:1006200083120313220884000008A700270884000F
:100630000A128A1500200A128A11643A0319212B22
:10064000222B2E2B270884000A128A1500200A125A
:100650008A11693A031D2D2B2E2BBB2B23088400F6
:1006600083130008FF00023080077F088400000821
:10067000A800840A0008A900220884002708013E77
:1006800080002030AC00A91B462B482B0130492BA1
:100690000030A6000130AC022C08A03E84000A30D5
:1006A000F0000030F1002908F3002808F2000A12D7
:1006B0008A11C3200A128A117108F7007008F60027
:1006C0000A128A15A8250A128A117608303E831369
:1006D00080000A30F0000030F10083120313290873
:1006E000F3002808F2000A128A111A210A128A114C
:1006F000710883120313A9007008A80028082904B0
:100700000319832B842B892B2C08031D882B892B01
:100710004A2B2C0803198D2B8E2BB42B260803197A
:10072000922B932BB42B0130AC022C08A03E8400FA
:100730002D3083138000B42B2C08A03E840083133B
:100740000008A400A5012408F0002508F1002008F5
:10075000F2002108F3000A128A1154220A128A11A7
:10076000013083120313AC0720302C06031DB92B74
:10077000BA2B9C2BDB2B831203132208840001303D
:100780008007DB2B22088400000884000A128A15E7
:1007900000200A128A11A400A5012408F0002508EF
:1007A000F1002008F2002108F3000A128A115422F5
:1007B0000A128A11BB2B08003F30F0000030F10014
:1007C0000A128A15CC250A128A1183120313E90131
:1007D000EA01082D69082B07FD007D0884003030F0
:1007E0000002031CF42BF52B4F2C69082B07FD008E
:1007F0007D0884003A3000020318FF2B002C4F2C98
:10080000B901BA011C2C69082B07FD007D08840082
:100810000008FF0039082D3E84007F088313800004
:100820000130E9070318EA0A0030EA070130B90786
:100830000318BA0A0030BA0769082B07FD007D08C3
:100840008400303083170002031C272C282C332C03
:1008500069082B07FD007D0884003A300002031C64
:10086000322C332C032C39082D3E84008313800155
:100870003F30A0000030A1002D30F6000A128A118E
:10088000E3210A128A11770883120313A300760862
:10089000A2000A128A1174200A128A11002D690816
:1008A0002B07FD007D0884002B3000060319592C0E
:1008B0005A2C7B2C69082B07FD007D0884002D3005
:1008C00000060319642C652C7B2C69082B07FD009E
:1008D0007D0884002A30000603196F2C702C7B2CB5
:1008E00069082B07FD007D0884002F300006031DDA
:1008F0007A2C7B2C002D3F30F8000030F9000A12D2
:100900008A153D270A128A11790883120313BE0043
:100910007808BD003F30F8000030F9000A128A154F
:100920003D270A128A11790883120313BC00780844
:10093000BB00B701B801DF2C3D083B07B7003E08FC
:1009400003183E0A3C07B800F32C3D083B02B700F1
:100950003E08031C3E0A3C02B800F32C3C08F100A0
:100960003B08F0003E08F3003D08F2000A128A1529
:10097000A3260A128A11710883120313B8007008A3
:10098000B700F32C3D083E04031DC72CC82CCB2C0C
:10099000B701B801F32C3E08F1003D08F0003C0817
:1009A000F3003B08F2000A128A111A210A128A1176
:1009B000710883120313B8007008B700F32C69089C
:1009C0002B07FD007D088400831700082A3A0319CD
:1009D000AE2C013A03199C2C063A0319A52C023AB5
:1009E0000319C22CF32C3F30A0000030A1003808BE
:1009F000A3003708A2000A128A1174200A128A1171
:100A0000013083120313E9070318EA0A0030EA07EA
:100A100069082B07FD007D08840083170008031D6B
:100A2000122D132DEA2B3F30F8000030F9000A1286
:100A30008A153D270A128A11790883120313AC0024
:100A40007808AB0008002F30F0000030F1000A12E7
:100A50008A15B9250A128A1183120313C501C6012A
:100A6000AD01AE01242E45082907AB002B088400F8
:100A700030300002031C3D2D3E2D882D45082907EE
:100A8000AB002B0884003A3000020318482D492D92
:100A9000882D642D45082907AB002B088400000829
:100AA000FF002D082A07AC002C0884007F08800076
:100AB0000130C5070318C60A0030C6070130AD076C
:100AC0000318AE0A0030AE0745082907AB002B0813
:100AD000840030300002031C6E2D6F2D7A2D4508E6
:100AE0002907AB002B0884003A300002031C792D43
:100AF0007A2D4A2D2D082A07AB002B0884002030C0
:100B000080000130AD070318AE0A0030AE07242E76
:100B100045082907AB002B0884002B300006031979
:100B2000922D932DDC2D45082907AB002B0884005E
:100B30002D30000603199D2D9E2DDC2D450829071B
:100B4000AB002B0884002A3000060319A82DA92D1C
:100B5000DC2D45082907AB002B0884002F30000648
:100B6000031DB32DB42D1C2EDC2D2F30F8000030CA
:100B7000F9000A128A15BA270A128A11FF00831295
:100B800003132D082A07AB002B0884007F08831766
:100B900080000130AD070318AE0A0030AE072D0803
:100BA0002A07AB002B088400203080000130AD07FD
:100BB0000318AE0A0030AE072F30F0000030F1000D
:100BC0000A128A153A260A128A1170087104031D46
:100BD000EA2DEB2D092E8312031345082907AB00DC
:100BE0002B08840083170008F6002F30F000003037
:100BF000F1000A128A151F260A128A110A128A1592
:100C0000ED260A128A1176087704031D082E092E94
:100C1000B52D2F30F0000030F1008312031345088A
:100C20002907AB002B08840083170008F2000A1282
:100C30008A1129200A128A11013083120313C50771
:100C40000318C60A0030C60745082907AB002B0861
:100C5000840083170008031D2E2E2F2E332D572EB0
:100C60002F30F8000030F9000A128A15BA270A124C
:100C70008A11FF00831203132D082A07AB002B08EB
:100C800084007F08831780000130AD070318AE0A87
:100C90000030AE072D082A07AB002B088400203057
:100CA00080000130AD070318AE0A0030AE072F30C8
:100CB000F0000030F1000A128A153A260A128A1151
:100CC000700871040319652E662E302E83120313EB
:100CD0002D082A07AB002B08840083178001080029
:100CE0008316031386010A128A117D210A128A11C2
:100CF0000F30831603138800F0308312031388002B
:100D0000B03084002030FF0083178001840AFF0B7D
:100D1000842E83160317DC01DD0183160317DE0121
:100D2000DF01F0308312031388000130EB008316DB
:100D300003175E08043E013E83120313A12E031025
:100D4000EB0DFF3E031D9F2E6B08FF3A88050D300B
:100D500083120313EC00FB30EB00EB0BAD2EEC0B1E
:100D6000AD2E83160317E101E20101308312031354
:100D7000EB0083160317610A83120313C12E0310BD
:100D8000EB0DFF3E031DBF2E6B080805031DC92E8A
:100D9000CA2EAD2F831603175E0883120313EB00D0
:100DA00002300310EB0DFF3E031DD12EC4306B0744
:100DB000EC00831603176108831203136C07ED0020
:100DC0006D0884008313000883160317E000600891
:100DD0000A128A1581250A128A11831603175C08E4
:100DE000B03E84006008831780000130DC070318E0
:100DF000DD0A0030DD073D306006031D002F012FA6
:100E0000682F5C08FF3EB03E84008001B030831242
:100E10000313A9009030AA000A128A1123250A128E
:100E20008A11903083120313AB000A128A11DC235B
:100E30000A128A11831203132C0883160317DB008E
:100E4000831203132B0883160317DA00F301013012
:100E50000A128A1515270A128A1106308312031303
:100E6000EC002F30EB00EB0B332FEC0B332F382F34
:100E7000D03083120313B1000130B2008316031780
:100E80005B0883120313B400831603175A088312F6
:100E90000313B3000A128A1580260A128A11D03071
:100EA000F7000A128A15F2250A128A11831603170F
:100EB000DC01DD01B030F0000030F100F200203044
:100EC000F3000030F4000A128A1506260A128A116D
:100ED0004330831603176006031D6F2F702F892F71
:100EE000F30101300A128A1515270A128A11831696
:100EF0000317DC01DD01B030F0000030F100F2003A
:100F00002030F3000030F4000A128A1506260A1277
:100F10008A11013083120313EB0083160317610A51
:100F200083120313952F0310EB0DFF3E031D932F28
:100F30006B08080503199D2F9E2F892F03308312FC
:100F40000313ED000830EC007630EB00EB0BA62F1E
:100F5000EC0BA62FED0BA62F000001308316031714
:100F6000E1070318E20A0030E2076208803AFF0056
:100F700080307F02031DBE2F04306102031CC12F8D
:100F8000C22FB52E013083160317DE070318DF0AC0
:100F90000030DF075F08803AFF0080307F02031DCA
:100FA000D32F04305E02031CD62FD72F912E8D2E07
:100FB0000A128A1100288313D430FD000D30FE0080
:100FC0009830FF00C43084000A128A15E3250A1203
:100FD0008A1183171030840030300A128A1579255F
:100FE0000A128A118313A0308400C4300A128A15B1
:100FF00079250A128A11EE0183010A128A11702ED4
:1010000008308A000408840A8207003425346434D6
:021010000034AA
:101AF000080064008001840A040603190034040607
:101B00007A2DF600F301F30A76080A128A151527D2
:101B10000A128A1508008312031306158F2D8312EB
:101B2000031306114230F000F00B942D0000080062
:101B30003734383439342F343434353436342A3465
:101B40003134323433342D34433430343D342B3457
:101B5000F71BAB2DAC2DAD2DB82D7609F80077090C
:101B6000F900F80A0319F90A7808F6007908F7006D
:101B700008007008143EF20071080318013E003E90
:101B8000F300720884008317731C8313FF308000F6
:101B9000840AFF30800008007008283EF2007108B7
:101BA0000318013E003EF300720884008317731C83
:101BB0008313FF308000840AFF30800008007E0815
:101BC0008A007F0882000A128A15DF250A128A1508
:101BD0008000840A04087D0603190034FF0A0319F3
:101BE000FE0AE32DFD2D7708840000080A128A15ED
:101BF00081250A128A150130F707770884008317B8
:101C00000008031D042E052EF32D08007008F500B2
:101C1000102E750884007108831780000130F507C5
:101C20000130F3020030031CF403F402730A031DB5
:101C30001D2E740A031D1D2E1E2E092E080070086D
:101C4000143EF20071080318013E003EF3007208D2
:101C500084008317731C831300087007F400710855
:101C60000318013EF500740884008317751C831364
:101C7000000808007008143EF20071080318013EC5
:101C8000003EF300720884008317731C831300085E
:101C9000F400840A0008F500740A031D552E750A25
:101CA0000319532E552E0130562E0030F600F70141
:101CB0007608F0007708F10008007008283EF2006E
:101CC00071080318013E003EF30072088400831778
:101CD000731C83130008F400840A0008F500740ADA
:101CE000031D782E750A0319762E782E0130792E71
:101CF0000030F600F7017608F0007708F1000800E0
:101D0000333083120313B6003108B7000130B80036
:101D1000B901BA01C001C1013730AD000030AE00D9
:101D20003208AF003630B0000A128A15C8260A12EF
:101D30008A158312031339083107B500350884006A
:101D4000831780010800F401F501701CA82EA92E4C
:101D5000AF2E7208F4070318F50A7308F50701306F
:101D60000310F20DF30DFF3E031DB02E01300310E2
:101D7000F10CF00CFF3E031DB72E70087104031D1B
:101D8000C22EC32EA52E7508F1007408F0000800BD
:101D9000831203132F08FD00DC2E831203132D087A
:101DA000A0002E08A1007D30A2003008A3000A1276
:101DB0008A11EE220A128A157D0884000A128A15F9
:101DC00000200A128A15003A031DE72EE82ECD2EB8
:101DD00083120313AD01AE010800FD007D080A1255
:101DE0008A1103200A128A157008F8007108F90098
:101DF00076080A128A1103200A128A157908803A95
:101E0000FA007108803A7A02031D082F70087802E0
:101E100003180B2F0D2F01300E2F0030FB00FC019B
:101E20007B08F6007C08F7000800F500730C8312AD
:101E30000313031C0610031806147508F40004307D
:101E40000310F40CFF3E031D202F74080A128A159C
:101E50007B270A128A150A128A158B250A128A15FF
:101E600075080F390A128A157B270A128A150A1279
:101E70008A158B250A128A1508007808F00079085F
:101E8000F1000A128A155D260A128A15700871047B
:101E9000031D4B2F4C2F782F7808283E83120313F5
:101EA000A00079080318013E003EA100200884002C
:101EB0008317211C83138003000AA200840F0008EB
:101EC000A3002208031980032208A400240778072E
:101ED000A50079080318013EA60025088400831791
:101EE000261C83130008F800840A0008F9007A2FE2
:101EF000F801F9010800F20072080139F000F00E53
:101F00008312031306087006EF3970068600720804
:101F1000F0000310700C0139F100F10EF10D06080C
:101F20007106DF39710686007208F0000230031076
:101F3000F00CFF3E031D972F70080139F100F10EE0
:101F4000F10DF10D06087106BF39710686007208A1
:101F5000F00003300310F00CFF3E031DAA2F7008A1
:101F60000139F100F10CF10C060871067F39710698
:101F7000860008007808F0007908F1000A128A1536
:101F80003A260A128A1570087104031DC82FC92F3A
:101F9000FC2F7808143E83120313A000790803185D
:101FA000013E003EA100200884008317211C8313FA
:101FB0008003000AA200840F0008A300220803196E
:101FC000800322087807A5007908A4000318A40A52
:101FD000A21FEB2FA403831203132408A6002508D5
:101FE00084008317261C83130008A700A801270874
:101FF000FA002808FB00FE2FFA01FB017A0808000E
:02400E003A3F37
:00000001FF
